:020000040000FA
:060000000A128A1110280B
:10000800FE00030EF1000A08F200831203137F08B2
:10001800F3000A128A1176280A128A111328F701A6
:10002800F801F90183010A128A111229F6005228EF
:10003800831603130F138F120F12742883160313DA
:100048000F138F120F167428831603130F138F16AE
:100058000F127428831603130F138F160F167428A4
:10006800831603130F178F120F12742883160313A6
:100078000F178F120F167428831603130F178F1676
:100088000F127428831603130F178F160F16742870
:10009800831603130F178F160F1274287608F400AF
:1000A800F5017508003A03195A284C287408003AD3
:1000B80003191C28013A03192228033A031928288E
:1000C800013A03192E28073A03193428013A03196B
:1000D8003A28033A03194028013A031946284C28BC
:1000E8000F1408000808FF007F08F7000B1C7D2884
:1000F8007E28A7280618812882288528F901F90A68
:1001080093287903031D89288A289328061C8D289B
:100118008E289328F9010130FF007F088807861888
:10012800962897289A28F801F80AA6287803031D24
:100138009E289F28A628861CA228A328A628F8015E
:10014800013088020B108C1DAA28AB28B428770828
:100158000A128A111B210A128A11831203138C11A5
:100168007308FF0072088A00710E8300FE0E7E0E6F
:10017800090006300A128A111A200A128A11F4019B
:10018800F501F60124300A128A11F4200A128A11A4
:1001980083160313880189018316031788018901CF
:1001A80083120313850186018701880189010830BC
:1001B800831603138700203085000330860007303C
:1001C80081008B170B178B150B100330960003302B
:1001D8009500831203138C11831603138C150800E2
:1001E80083120313A00083160313871283120313C9
:1001F800201DFF280029062976088316031394007A
:1002080087150C2974087604831603139400871144
:100218008312031320087504940008000A128A1137
:10022800BD200A128A1117290A128A111028F00013
:0A02380070088312031393000800FE
:04400E00D420FF3F7C
:00000001FF
