:020000040000FA
:060000000A128A1110280B
:10000800FE00030EF0000A08F100831203137F08B4
:10001800F2000A128A1119280A128A111328F30108
:10002800F40183010A128A1171280B1C1C281D284F
:1000380046280618202821282428F401F40A322802
:100048007403031D282829283228061C2C282D284B
:100058003228F4010130FF007F0888078618352808
:1000680036283928F301F30A45287303031D3D2870
:100078003E284528861C412842284528F30101309E
:1000880088020B107208FF0071088A00700E830046
:10009800FE0E7E0E0900831603138801890183165C
:1000A80003178801890183120313850186018701DB
:1000B80088018901083083160313870020308500E2
:1000C80003308600073081008B170B178B150B1038
:1000D800033096000330950008000A128A114F2059
:0C00E8000A128A1176280A128A111028C8
:04400E00D420FF3F7C
:00000001FF
