:020000040000FA
:060000000A128A110C280F
:10000800FE00030EF0000A08F1000A128A11D12935
:100018000A128A110F28FA0183010A128A1170281C
:10002800F4004C28831603130F138F120F126E2837
:10003800831603130F138F120F166E2883160313DC
:100048000F138F160F126E28831603130F138F16B4
:100058000F166E28831603130F178F120F126E28B0
:10006800831603130F178F120F166E2883160313A8
:100078000F178F160F126E28831603130F178F167C
:100088000F166E28831603130F178F160F126E287C
:100098007408F200F3017308003A0319542846283B
:1000A8007208003A03191628013A03191C28033A62
:1000B80003192228013A03192828073A03192E2878
:1000C800013A03193428033A03193A28013A031963
:1000D800402846280F1408000A128A11C9200A125B
:1000E8008A11F601F60A01300A128A112D210A1224
:1000F8008A110B300A128A1108210A128A11073054
:10010800FF007F08F60001300A128A112D210A1219
:100118008A1106300A128A1108210A128A110D3032
:10012800FF007F08F60001300A128A112D210A12F9
:100138008A1101300A128A1108210A128A118312BF
:1001480003130710C730F900A928F90BA828AC2811
:10015800AD2800300A128A11D8210A128A110A120F
:100168008A11C1210A128A11831203138800C73029
:10017800F900BE28F90BBD28C128C2288312031331
:100188000714A3280A128A110C2883160313850161
:10019800890106300A128A1114200A128A110A12D9
:1001A8008A1151210A128A118A300A128A116A2187
:1001B8000A128A11F201F301F40120300A128A119D
:1001C80081210A128A1183160317880103308900D6
:1001D800831203138501860187018801890183162B
:1001E80003138701880103308600873081008B174D
:1001F8008B160B170C170B11831203130C130C120D
:10020800831603130C160800F700F501F6011F29E1
:100218007508770784000A128A11AD210A128A111B
:100228000A128A1197210A128A110130F507031858
:10023800F60A0030F6077508770784000A128A1153
:10024800AD210A128A11003A031D2B292C290C29E9
:100258000800F7007703031D322933293F29760860
:100268007F3EFF007F08F80078080A128A116A2189
:100278000A128A11502902307706031D442945299C
:1002880050297608BF3EFF007F08F80078080A1258
:100298008A116A210A128A11080038300A128A1152
:1002A8006A210A128A110C300A128A116A210A126A
:1002B8008A1106300A128A116A210A128A118030BC
:1002C8000A128A116A210A128A110800F5007508B3
:1002D8000A128A11DE210A128A1183120313891065
:1002E80009140730F4007D30F300F30B7929F40B7F
:1002F80079298312031309100800F50083160313E4
:100308008712751D882989298D29740894008715F5
:100318009129720874049400871175087304831274
:10032800031394000800F40083120313891474085B
:100338000A128A11DE210A128A1183120313091480
:100348000D30F300F30BA62983120313091089104B
:10035800080001308A000408840A820700345434F3
:1003680045344D345034003443344F344E345434CF
:10037800003441344434433400340A128A11CA2107
:100388000A128A1183120313130808008316031331
:10039800141CCF29D029CA29080071088A00700EB8
:1003A8008300FE0E7E0E0900F2007208831203130A
:1003B80093000800F20072088312031385000800F6
:04400E00D420FF3F7C
:00000001FF
