:020000040000FA
:060000000A128A110C280F
:10000800FE00030EF0000A08F1000A128A11832983
:100018000A128A110F2883010A128A11A928F400EA
:100028004B28831603130F138F120F126D28831694
:1000380003130F138F120F166D28831603130F1354
:100048008F160F126D28831603130F138F160F16B2
:100058006D28831603130F178F120F126D2883163E
:1000680003130F178F120F166D28831603130F171C
:100078008F160F126D28831603130F178F160F167E
:100088006D28831603130F178F160F126D28740827
:10009800F200F3017308003A03195328452872083F
:1000A800003A03191528013A03191B28033A0319C2
:1000B8002128013A03192728073A03192D28013A5C
:1000C80003193328033A03193928013A03193F2839
:1000D80045280F140800831603138501890106308B
:1000E8000A128A1113200A128A110A128A11292166
:1000F8000A128A118A300A128A1142210A128A11B6
:1001080083160317880103308900831203138501BE
:1001180086018701880189018316031387018801F5
:1001280003308600873081008B178B160B170C174E
:100138000B11831203130C130C12831603130C16E2
:100148008C16831203138C1208000A128A116F206E
:100158000A128A11F601F60A01300A128A110521DB
:100168000A128A110B300A128A11E0200A128A1127
:100178000730FF007F08F60001300A128A110521B6
:100188000A128A1106300A128A11E0200A128A110C
:100198000D30FF007F08F60001300A128A11052190
:1001A8000A128A1101300A128A11E0200A128A11F1
:1001B800DC280A128A110C28F700F501F601F72845
:1001C8007508770784000A128A116F210A128A11AA
:1001D8000A128A1159210A128A110130F5070318E7
:1001E800F60A0030F6077508770784000A128A11A4
:1001F8006F210A128A11003A031D03290429E428F1
:100208000800F7007703031D0A290B291729760828
:100218007F3EFF007F08F80078080A128A11422101
:100228000A128A11282902307706031D1C291D2964
:1002380028297608BF3EFF007F08F80078080A12D0
:100248008A1142210A128A11080038300A128A11CA
:1002580042210A128A110C300A128A1142210A120A
:100268008A1106300A128A1142210A128A11803034
:100278000A128A1142210A128A110800F50075082B
:100288000A128A118A210A128A1183120313891009
:1002980009140730F4007D30F300F30B5129F40BF7
:1002A80051298312031309100800F4008312031361
:1002B800891474080A128A118A210A128A1183126F
:1002C800031309140D30F300F30B68298312031389
:1002D80009108910080001308A000408840A82077E
:1002E8000034543445344D345034003443344F349E
:1002F8004E345434003441344434433400347108A7
:100308008A00700E8300FE0E7E0E0900F20072084D
:080318008312031385000800A5
:04400E00D420FF3F7C
:00000001FF
