:020000040000FA
:060000000A128A11122809
:10000800FE00030EF2000408F3000A08F40083124D
:1000180003137F08F5000A128A11F62D0A128A11B5
:100028001528F7018313203084003D300A128A1105
:1000380060270A128A1183010A128A1123280A12D8
:100048008A117A250A128A1183120313C001C00A81
:1000580001300A128A117F260A128A110B300A12FD
:100068008A112F260A128A110730FF007F0883128F
:100078000313C00001300A128A117F260A128A115E
:1000880006300A128A112F260A128A110D30FF0033
:100098007F0883120313C00001300A128A117F26D9
:1000A8000A128A1101300A128A112F260A128A119D
:1000B8000130FF007F0883120313B3070A128A1165
:1000C80039230A128A110A128A11F6230A128A118E
:1000D8000A128A1172210A128A11831603130C1646
:1000E800831203133303031D7A287B289F280710E4
:1000F800C73083120313D3008128D30B80288428A8
:1001080000300A128A116F270A128A110A128A11FC
:1001180057270A128A11FF007F0883120313BB00B6
:10012800C73083120313D3009928D30B98289C282F
:1001380083120313071402303306031DA428A528CD
:10014800C9288710C73083120313D300AB28D30BF9
:10015800AA28AE2800300A128A116F270A128A11BB
:100168000A128A1157270A128A11FF007F08831280
:100178000313BA00C73083120313D300C328D30B69
:10018800C228C62883120313871403303306031DBD
:10019800CE28CF28F4280711C73083120313D300C1
:1001A800D528D30BD428D82800300A128A116F27F3
:1001B8000A128A110A128A1157270A128A11FF0095
:1001C8007F0883120313AC00C73083120313D300D4
:1001D800ED28D30BEC28F028831203130715B3017D
:1001E800C001C00A02300A128A117F260A128A1137
:1001F8008312031336080A128A11F9260A128A1181
:100208000230FF007F0883120313C00002300A1275
:100218008A117F260A128A1113300A128A112F2690
:100228000A128A118312031335080A128A11F92651
:100238000A128A110430FF007F0883120313C000DA
:1002480002300A128A117F260A128A1183120313B6
:1002580034080A128A11F9260A128A110730FF0097
:100268007F0883120313C00002300A128A117F2606
:100278000A128A11831203132F080A128A11F92607
:100288000A128A110830FF007F0883120313C00086
:1002980002300A128A117F260A128A118312031366
:1002A8002E080A128A11F9260A128A110930FF004B
:1002B8007F0883120313C00002300A128A117F26B6
:1002C8000A128A11831203132D080A128A11F926B9
:1002D8000A128A115C280A128A11122844308312E1
:1002E80003132C02031C79297A29102ABB30C30076
:1002F8000030C4002C08BC3EBD00FF30031800309D
:10030800BE009630BF000030C0000A128A1158267D
:100318000A128A11831203133E08C6003D08C5005D
:100328000A128A1164240A128A11831203134308D9
:10033800FF007F08A1006430C3000030C40021081A
:10034800CB00CC014B08C5004C08C6000A128A1124
:1003580064240A128A11831203134308FF007F08DA
:10036800AB000A30C3000030C4002B08CB00CC011E
:100378004B08BD004C08BE009C30BF00FF30C000D9
:100388000A128A1158260A128A11831203132108A5
:100398003D07C5003E0803183E0AC6000A128A1126
:1003A80064240A128A11831203134308FF007F088A
:1003B800AA009C30FF007F08F6002B080A128A1159
:1003C8002B270A128A1183120313CB00F630FF0081
:1003D8007F08F6002A080A128A112B270A128A11A6
:1003E800831203134B072107FF007F08A9002B087E
:1003F800303EFF007F08A6002A08303EFF007F0835
:10040800A5002908303EFF007F08A4000A128A11BF
:100418002B250A128A11712A44302C020318152A36
:10042800162A712A4430C3000030C4002C08CB00BF
:10043800CC014B08BD004C08BE00C930BF00FF30DE
:10044800C0000A128A1158260A128A11831203134D
:100458003E08C6003D08C5000A128A1164240A1223
:100468008A11831203134308373EFF007F08A00058
:100478000A30C3000030C4002008CB00CC014B0870
:10048800C5004C08C6000A128A1164240A128A118F
:10049800831203134308FF007F08A800F630FF000B
:1004A8007F08F60028080A128A112B270A128A11D7
:1004B800831203132007FF007F08A7002808303E97
:1004C800FF007F08A3002708303EFF007F08A20036
:1004D8000A128A11BB250A128A110800EC2A203058
:1004E800831203139900382B2830831203139900C1
:1004F800382B8312031336089900382B2E308312B9
:1005080003139900382B8312031335089900382BED
:100518008312031334089900382B293083120313EC
:100528009900382B2C30831203139900382B83122F
:1005380003132F089900382B831203132E089900F0
:10054800382B831203132D089900382B443083125B
:1005580003132C02031CB12AB22AB52A26089900D3
:10056800382B44302C020318BA2ABB2A382B2D30DA
:100578009900382B4430831203132C02031CC52A1C
:10058800C62AC92A25089900382B44302C0203189A
:10059800CE2ACF2A382B23089900382B44308312CF
:1005A80003132C02031CD92ADA2ADD2A240899000D
:1005B800382B44302C020318E22AE32A382B22086D
:1005C8009900382B0D30831203139900F701382B4B
:1005D8007708F000F1017108003A0319F42A382B62
:1005E8007008003A0319732A013A0319782A033A62
:1005F80003197D2A013A0319822A073A0319872A1F
:10060800013A03198C2A033A0319912A013A03196A
:10061800962A0F3A0319732A013A0319782A033ADA
:1006280003199B2A013A0319A02A073A0319A52A94
:10063800013A0319912A033A0319962A013A031930
:10064800732A1F3A0319782A013A0319AA2A033A86
:100658000319BE2A013A0319D22A073A0319912A23
:10066800013A0319E62A382B0800333083120313A2
:10067800C3000030C4003B08CB00CC014B08C500C8
:100688004C08C6000A128A1164240A128A118312BD
:1006980003134308FF007F08B9003330C30000305C
:1006A800C4003B08CB00CC014B08BD004C08BE0081
:1006B8006430BF000030C0000A128A1158260A129E
:1006C8008A11831203133E08C6003D08C5000A12AA
:1006D8008A1164240A128A11831203134308CD0075
:1006E8004408CE003908CF00D0014F08BD0050089B
:1006F800BE009C30BF00FF30C0000A128A11582685
:100708000A128A11831203133D084D07D1003E08CF
:1007180003183E0A4E07D2000A30C3000030C40056
:100728005208C6005108C5000A128A1164240A1228
:100738008A11831203134308FF007F08B80033307F
:10074800C3000030C4003B08CB00CC014B08BD00FF
:100758004C08BE006430BF000030C0000A128A1185
:1007680058260A128A11831203133E08C6003D0850
:10077800C5000A128A1164240A128A11831203130B
:100788004308CD004408CE009C30FF007F08F600E7
:1007980039080A128A112B270A128A1183120313A5
:1007A800CF00F630FF007F08F60038080A128A11D9
:1007B8002B270A128A11831203134F074D07FF00D4
:1007C8007F08B7003908303EFF007F08B6003808B8
:1007D800303EFF007F08B5003708303EFF007F0835
:1007E800B4000800643083120313C3000030C4004F
:1007F8003A08CB00CC014B08C5004C08C6000A12C9
:100808008A1164240A128A11831203134308FF0011
:100818007F08B2000A30C3000030C4003208CB00A1
:10082800CC014B08BD004C08BE009C30BF00FF3017
:10083800C0000A128A1158260A128A118312031359
:100848003A083D07C5003E0803183E0AC6000A12CA
:100858008A1164240A128A11831203134308FF00C1
:100868007F08B1009C30FF007F08F60032080A12AA
:100878008A112B270A128A1183120313CB00F63030
:10088800FF007F08F60031080A128A112B270A1286
:100898008A11831203134B073A07FF007F08B00041
:1008A8003208303EFF007F08AF003108303EFF00BD
:1008B8007F08AE003008303EFF007F08AD0008001A
:1008C80083120313C801C41F6A2C6B2C722CC30932
:1008D800C409C30A0319C40AC801C80AC61F752C6B
:1008E800762C7F2CC509C609C50A0319C60A01302A
:1008F800FF007F08C806C901CA0143084404031958
:10090800862C872CBE2CC701C70A952C01300310F2
:10091800C30DC40DFF3E031D8B2C0130FF007F0863
:10092800C707C41F982C992C8A2C01300310C90DB5
:10093800CA0DFF3E031D9A2C44084602031DA62C2F
:1009480043084502031CA92CAA2CB12C4308C50254
:100958004408031CC603C602491401300310C40C22
:10096800C30CFF3E031DB22C0130C702031DBD2C72
:10097800BE2C992C48080319C22CC32CC82CC909B1
:10098800CA09C90A0319CA0A4A08C4004908C3009F
:100998000800F600052D831603130F138F120F128C
:1009A800292D831603130F138F120F16292D831663
:1009B80003130F138F160F12292D831603130F130A
:1009C8008F160F16292D831603130F178F120F1268
:1009D800292D831603130F178F120F16292D83162F
:1009E80003130F178F160F12292D831603130F17D2
:1009F8008F160F16292D831603130F178F160F1234
:100A0800292D760883120313BD00BE013E08003A63
:100A180003190F2DFF2C3D08003A0319CF2C013A7A
:100A28000319D52C033A0319DB2C013A0319E12CDD
:100A3800073A0319E72C013A0319ED2C033A031975
:100A4800F32C013A0319F92CFF2C0F1408000C3071
:100A5800FF007F0883120313C00002300A128A11B4
:100A68007F260A128A110F300A128A112F260A12BB
:100A78008A110D30FF007F0883120313C000023073
:100A88000A128A117F260A128A1183120313260872
:100A98000A128A11F9260A128A110E30FF007F08FD
:100AA80083120313C00002300A128A117F260A1229
:100AB8008A118312031325080A128A11F9260A12C9
:100AC8008A110F30FF007F0883120313C000023021
:100AD8000A128A117F260A128A1183120313240824
:100AE8000A128A11F9260A128A11080083160313BA
:100AF8008501890106300A128A11CD240A128A1149
:100B08000A128A1142270A128A110A128A11122716
:100B18000A128A118A300A128A11C3260A128A1105
:100B280083120313BD01BE01BF0120300A128A11CE
:100B3800A5260A128A1183160317880189018312D0
:100B48000313850186018701880189011030831606
:100B58000313870088018601873081008B170B17E4
:100B6800831203130C12831603130C1608000C309F
:100B7800FF007F0883120313C00002300A128A1193
:100B88007F260A128A1111300A128A112F260A1298
:100B98008A110E30FF007F0883120313C000023051
:100BA8000A128A117F260A128A1183120313230854
:100BB8000A128A11F9260A128A110F30FF007F08DB
:100BC80083120313C00002300A128A117F260A1208
:100BD8008A118312031322080A128A11F9260A12AB
:100BE8008A1108000C1EF92DFA2D092E0A128A11F5
:100BF80072220A128A110130FF007F08F707831654
:100C080003130C12831203130C1253302C02031813
:100C18000E2E0F2E102E091554302C02031C152EE3
:100C2800162E1D2E71302C0203181B2E1C2E1D2E65
:100C3800891472302C02031C222E232E242E091410
:100C48007508FF0074088A0073088400720E830018
:100C5800FE0E7E0E090083120313C100BF01C001FE
:100C68004A2E3F08410784000A128A11DF260A1219
:100C78008A110A128A11F9260A128A11013083127E
:100C88000313BF070318C00A0030C0073F08410715
:100C980084000A128A11DF260A128A11003A031DFB
:100CA800562E572E352E080083120313C101C20198
:100CB8003D1C5F2E602E662E3F08C1070318C20A2E
:100CC8004008C20701300310BF0DC00DFF3E031DD1
:100CD800672E01300310BE0CBD0CFF3E031D6E2EA7
:100CE8003D083E04031D792E7A2E5C2E4208BE0074
:100CF8004108BD00080083120313C1004103031D0E
:100D0800862E872E932E40087F3EFF007F08C20064
:100D180042080A128A11C3260A128A11A42E023026
:100D28004106031D982E992EA42E4008BF3EFF00B1
:100D38007F08C20042080A128A11C3260A128A11C1
:100D48000800F600831603138712761DAC2EAD2E0D
:100D5800B52E831203133F088316031394008715D7
:100D6800BD2E831203133D083F048316031394001A
:100D780087117608831203133E0494000800831237
:100D88000313BF003F080A128A1175270A128A1135
:100D98008312031389100914073083120313BE004A
:100DA8007C30BD00BD0BD62EBE0BD62E00008312A4
:100DB80003130910080006308A000408840A820711
:100DC8000034543445344D345034003443344F34B3
:100DD8004E345434003441344434433400342B34D6
:100DE80000342D3400342E34003483120313BE0033
:100DF80089143E080A128A1175270A128A11831269
:100E0800031309140C3083120313BD00BD0B0A2F02
:100E180000008312031309108910080038300A12E1
:100E28008A11C3260A128A110C300A128A11C326A3
:100E38000A128A1106300A128A11C3260A128A1166
:100E480080300A128A11C3260A128A1108008312F6
:100E58000313BE00BD013E1C322F332F372F7608F7
:100E6800FF007F08BD070310F60D0310BE0C3E08F7
:100E7800031D3F2F402F2F2F3D0808008316031313
:100E880018131812181583160317871183160313DE
:100E98009A01193099000C169816831203139817A3
:100EA8001813181608000A128A1168270A128A11DC
:100EB800831203131308080064008001840A0406DF
:100EC800031900340406612F83160313141C6D2FB5
:100ED8006E2F682F0800F60076088312031393001C
:0E0EE8000800F6007608831203138500080048
:04400E00D420FF3F7C
:00000001FF
