:020000040000FA
:060000000A128A110C280F
:10000800FE00030EF0000A08F1000A128A115829AE
:100018000A128A110F28F901FA01FB0183010A1259
:100028008A110B29F4004E28831603130F138F121D
:100038000F127028831603130F138F120F167028D0
:10004800831603130F138F160F12702883160313CA
:100058000F138F160F167028831603130F178F129E
:100068000F127028831603130F178F120F1670289C
:10007800831603130F178F160F1270288316031396
:100088000F178F160F167028831603130F178F126A
:100098000F1270287408F200F3017308003A03196C
:1000A800562848287208003A03191828013A0319F3
:1000B8001E28033A03192428013A03192A28073A63
:1000C80003193028013A03193628033A03193C2842
:1000D800013A0319422848280F140800831603130D
:1000E80085010330860006300A128A1116200A128A
:1000F8008A110A128A11F2200A128A118A300A1207
:100108008A1122210A128A1183160317880188018D
:100118000330890083120313850186018701880152
:100128008901033083160313860080308700880115
:100138008901873081008B178B160B170C170B1151
:10014800831203130C130C120800F700F501F601D3
:10015800C0287508770784000A128A114F210A12ED
:100168008A110A128A1139210A128A110130F507F7
:100178000318F60A0030F6077508770784000A1294
:100188008A114F210A128A11003A031DCC28CD2862
:10019800AD280800F7007703031DD328D428E028EA
:1001A80076087F3EFF007F08F80078080A128A1157
:1001B80022210A128A11F12802307706031DE52848
:1001C800E628F1287608BF3EFF007F08F800780887
:1001D8000A128A1122210A128A11080038300A12DA
:1001E8008A1122210A128A110C300A128A1122213C
:1001F8000A128A1106300A128A1122210A128A1159
:1002080080300A128A1122210A128A1108000A1261
:100218008A1172200A128A11F601F60A01300A12AE
:100228008A11CE200A128A1101300A128A11A920D5
:100238000A128A1110290A128A110C28F500750869
:100248000A128A115F210A128A1183120313861176
:1002580086160730F4007D30F300F30B3129F40BD8
:1002680031298312031386120800F4008312031342
:10027800861574080A128A115F210A128A118312DC
:10028800031386160D30F300F30B4829831203136A
:1002980086128611080001308A000408840A820741
:1002A800003456343134003471088A00700E8300EB
:1002B800FE0E7E0E0900F2007208831203138500F9
:0202C80008002C
:04400E00D420FF3F7C
:00000001FF
