:020000040000FA
:060000000A128A11122809
:10000800FE00030EF4000408F5000A08F600831247
:1000180003137F08F7000A128A119F2D0A128A110A
:100028001528F801F901FA01FB01FC01FD01831310
:100038003630840046300A128A1141270A128A1182
:1000480083010A128A119F29333083120313A600F1
:100058000030A7004508AE00AF012E08A8002F0801
:10006800A9000A128A118C240A128A118312031316
:100078002608FF007F08C2003330A6000030A70022
:100088004508AE00AF012E08A0002F08A10064307B
:10009800A2000030A3000A128A1167260A128A11E8
:1000A800831203132108A9002008A8000A128A1144
:1000B8008C240A128A11831203132608B000270819
:1000C800B1004208B200B3013208A0003308A10011
:1000D8009C30A200FF30A3000A128A1167260A1278
:1000E8008A118312031320083007B400210803186B
:1000F800210A3107B5000A30A6000030A7003508EC
:10010800A9003408A8000A128A118C240A128A113C
:10011800831203132608FF007F08C1003330A600AE
:100128000030A7004508AE00AF012E08A0002F0838
:10013800A1006430A2000030A3000A128A116726C9
:100148000A128A11831203132108A9002008A800A3
:100158000A128A118C240A128A11831203132608A0
:10016800B0002708B1009C30FF007F08A0004208BB
:100178000A128A1102270A128A1183120313B20083
:10018800F630FF007F08A00041080A128A110227F2
:100198000A128A118312031332073007FF007F08FF
:1001A800C0003330A6000030A7004408AE00AF01FD
:1001B8002E08A8002F08A9000A128A118C240A12F6
:1001C8008A11831203132608FF007F08BF0033300B
:1001D800A6000030A7004408AE00AF012E08A0001A
:1001E8002F08A1006430A2000030A3000A128A116F
:1001F80067260A128A11831203132108A90020080E
:10020800A8000A128A118C240A128A118312031375
:100218002608B0002708B1003F08B200B301320831
:10022800A0003308A1009C30A200FF30A3000A12EE
:100238008A1167260A128A118312031320083007CD
:10024800B40021080318210A3107B5000A30A600B6
:100258000030A7003508A9003408A8000A128A113E
:100268008C240A128A11831203132608FF007F08C0
:10027800BE003330A6000030A7004408AE00AF012E
:100288002E08A0002F08A1006430A2000030A300AF
:100298000A128A1167260A128A1183120313210887
:1002A800A9002008A8000A128A118C240A128A11AF
:1002B800831203132608B0002708B1009C30FF0002
:1002C8007F08A0003F080A128A1102270A128A1121
:1002D80083120313B200F630FF007F08A0003E0827
:1002E8000A128A1102270A128A118312031332078B
:1002F8003007FF007F08BD004208303EFF007F083E
:10030800BC004108303EFF007F08BB004008303E7B
:10031800FF007F08BA003F08303EFF007F08B900A1
:100328003E08303EFF007F08B8003D08303EFF0021
:100338007F08B70008000A128A1153250A128A1189
:1003480083120313A401A40A01300A128A118E260B
:100358000A128A1106300A128A113E260A128A11D6
:100368000730FF007F0883120313A40001300A122C
:100378008A118E260A128A1109300A128A113E261B
:100388000A128A110D30FF007F0883120313A4009C
:1003980001300A128A118E260A128A1101300A12B5
:1003A8008A113E260A128A110A128A1128200A1274
:1003B8008A111530831203134302031CE429E5292B
:1003C800EA299F14C301831603130C168312A40190
:1003D800A40A02300A128A118E260A128A1183127E
:1003E80003133C080A128A11E9260A128A110230FC
:1003F800FF007F0883120313A40002300A128A1137
:100408008E260A128A110C300A128A113E260A1206
:100418008A11831203133B080A128A11E9260A1269
:100428008A110430FF007F0883120313A4000230EE
:100438000A128A118E260A128A11831203133A08A5
:100448000A128A11E9260A128A110730FF007F086A
:1004580083120313A40002300A128A118E260A128C
:100468008A118312031339080A128A11E9260A121B
:100478008A110830FF007F0883120313A40002309A
:100488000A128A118E260A128A110C300A128A114F
:100498003E260A128A110930FF007F0883120313CF
:1004A800A40002300A128A118E260A128A118312B7
:1004B800031338080A128A11E9260A128A110A3027
:1004C800FF007F0883120313A40002300A128A1166
:1004D8008E260A128A118312031337080A128A1108
:1004E800E9260A128A11D8290A128A111228F30059
:1004F8009A2A3F30831203139F05FF2A831203139E
:100508001F083F3940389F00FF2A831203131F0832
:100518003F3980389F00FF2AC030831203139F049D
:10052800FF2A3F30831203139F05FF2A7308F10047
:10053800F2017208003A0319A22A952A7108003AB2
:1005480003197D2A013A0319822A033A0319892AD1
:10055800013A0319902A952AC3309F05392B1F08A1
:10056800C33904389F00392B1F08C33908389F0046
:10057800392B1F08C3390C389F00392B1F08C33982
:1005880010389F00392B1F08C33914389F00392BA6
:100598001F08C33918389F00392B1F08C3391C3866
:1005A8009F00392B1F08C33920389F00392B1F089B
:1005B800C33924389F00392B1F08C33928389F00B6
:1005C800392B1F08C3392C389F00392B1F08C33912
:1005D80030389F00392B1F08C33934389F00392B16
:1005E8001F08C33938389F00392B3C309F04392BFA
:1005F800C3309F05392B7008F100F2017208003AE8
:100608000319072BFC2A7108003A0319B02A013A8A
:100618000319B32A033A0319B82A013A0319BD2A60
:10062800073A0319C22A013A0319C72A033A0319D8
:10063800CC2A013A0319D12A0F3A0319D62A013ACA
:100648000319DB2A033A0319E02A013A0319E52AB8
:10065800073A0319EA2A013A0319EF2A033A031958
:10066800F42A013A0319F92AFC2A0D30F200FB306A
:10067800F100F10B3D2BF20B3D2B422B83120313A0
:100688009F141F14831603139F010800831203137A
:10069800A300612B3F309F05C62B1F083F39403808
:1006A8009F00C62B1F083F3980389F00C62BC030DB
:1006B8009F04C62B3F309F05C62B2308A100A2012B
:1006C8002208003A0319692B5E2B2108003A031906
:1006D8004E2B013A0319512B033A0319562B013AB1
:1006E80003195B2B5E2BC3309F05002C1F08C339F1
:1006F80004389F00002C1F08C33908389F00002CBD
:100708001F08C3390C389F00002C1F08C339103844
:100718009F00002C1F08C33914389F00002C1F08A5
:10072800C33918389F00002C1F08C3391C389F0094
:10073800002C1F08C33920389F00002C1F08C3391C
:1007480024389F00002C1F08C33928389F00002C2C
:100758001F08C3392C389F00002C1F08C3393038B4
:100768009F00002C1F08C33934389F00002C1F0835
:10077800C33938389F00002C3C309F04002CC3300C
:100788009F05002C2008A100A2012208003A0319A5
:10079800CE2BC32B2108003A0319772B013A0319F2
:1007A8007A2B033A03197F2B013A0319842B073A52
:1007B8000319892B013A03198E2B033A0319932B3A
:1007C800013A0319982B0F3A03199D2B013A031983
:1007D800A22B033A0319A72B013A0319AC2B073AAA
:1007E8000319B12B013A0319B62B033A0319BB2B92
:1007F800013A0319C02BC32B0D3083120313A20037
:10080800FB30A100A10B062CA20B062C83120313AC
:100818009F141F14831603139F010800542C2830BB
:100828008312031399008B2C831203133C0899003D
:100838008B2C2E308312031399008B2C83120313F5
:100848003B0899008B2C831203133A0899008B2CD0
:1008580029308312031399008B2C2C308312031335
:1008680099008B2C20308312031399008B2C831250
:100878000313390899008B2C831203133808990045
:100888008B2C83120313370899008B2C2930831281
:10089800031399000D30831203139900FA018B2C6E
:1008A8007A08F000F1017108003A03195C2C8B2CCE
:1008B8007008003A0319132C013A0319182C033A4B
:1008C80003191D2C013A0319222C073A0319272C66
:1008D800013A03192C2C033A0319312C013A031954
:1008E800362C0F3A0319132C013A03193B2C033AFF
:1008F80003191D2C013A0319402C073A0319452CFA
:10090800013A03194A2C033A03194E2C8B2C080080
:1009180083120313AB01A71F922C932C9A2CA609C0
:10092800A709A60A0319A70AAB01AB0AA91F9D2CA0
:100938009E2CA72CA809A909A80A0319A90A0130FD
:10094800FF007F08AB06AC01AD0126082704031998
:10095800AE2CAF2CE62CAA01AA0ABD2C013003103C
:10096800A60DA70DFF3E031DB32C0130FF007F0825
:10097800AA07A71FC02CC12CB22C01300310AC0D44
:10098800AD0DFF3E031DC22C27082902031DCE2CE6
:1009980026082802031CD12CD22CD92C2608A80200
:1009A8002708031CA903A9022C1401300310A70C63
:1009B800A60CFF3E031DDA2C0130AA02031DE52C0C
:1009C800E62CC12C2B080319EA2CEB2CF02CAC09D3
:1009D800AD09AC0A0319AD0A2D08A7002C08A6001A
:1009E800080083120313A2002F2D831603130F137D
:1009F8008F120F12512D831603130F138F120F1618
:100A0800512D831603130F138F160F12512D8316B2
:100A180003130F138F160F16512D831603130F1779
:100A28008F120F12512D831603130F178F120F16E3
:100A3800512D831603130F178F160F12512D83167E
:100A480003130F178F160F16512D831603130F1745
:100A58008F160F12512D2208A000A1012108003A7B
:100A68000319372D292D2008003A0319F92C013ACA
:100A78000319FF2C033A0319052D013A03190B2D0D
:100A8800073A0319112D013A0319172D033A0319CF
:100A98001D2D013A0319232D292D0F140800831643
:100AA80003138801890106300A128A11F5240A12F3
:100AB8008A110C30FF007F0883120313A000013055
:100AC8000A128A114A230A128A110A128A1119274C
:100AD8000A128A110A128A11D0260A128A118A3039
:100AE8000A128A11B4260A128A118316031788017A
:100AF8000330890083120313850186018701880169
:100B0800890180308316031387008501033086002E
:100B1800873081008B178B160B170C170B1183125C
:100B280003130C130C12831603130C168C16831262
:100B380003138C1208000B1DA22DA32DAA2DEC3037
:100B480081000130FF007F08C3070B110C1FAD2D7A
:100B5800AE2DB62D0A128A1114260A128A11831292
:100B680003130C138C1EB92DBA2DC32D1A08FF00C0
:100B78007F08FB000A128A11E1250A128A118312E2
:100B880003130C1EC82DC92DD52D0A128A11122443
:100B98000A128A110130FF007F08FA07831603132F
:100BA8000C1277088312FF0076088A007508840003
:100BB800740E8300FE0E7E0E09002B307B06031D8B
:100BC800E62DE72DE92DF901F90A2B307B060319EB
:100BD800EE2DEF2DFB2D7903031DF32DF42DFB2DA9
:100BE800F9010130FF007F0883120313B6072D3087
:100BF8007B06031D002E012E032EF801F80A2D3066
:100C08007B060319082E092E132E7803031D0D2EBB
:100C18000E2E132EF801013083120313B6020800BA
:100C28007C08031D182E192E2C2E0C30FF007F086F
:100C3800F00001300A128A117B220A128A118312EB
:100C480003131E08FF007F08C500FC01FC0A3D2EA7
:100C58000A30FF007F08F00001300A128A117B2257
:100C68000A128A11831203131E08FF007F08C400AA
:100C7800FC01080083120313A500A301A401592E47
:100C88002308250784000A128A112E270A128A11BE
:100C98000A128A11E9260A128A11013083120313F3
:100CA800A3070318A40A0030A40723082507840013
:100CB8000A128A112E270A128A11003A031D652E7C
:100CC800662E442E080083120313A401A501201CDC
:100CD8006E2E6F2E752E2208A4070318A50A230866
:100CE800A50701300310A20DA30DFF3E031D762EAC
:100CF80001300310A10CA00CFF3E031D7D2E20081F
:100D08002104031D882E892E6B2E2508A100240896
:100D1800A000080083120313A5002503031D952EC8
:100D2800962EA22E24087F3EFF007F08A6002608E4
:100D38000A128A11B4260A128A11B32E0230250625
:100D4800031DA72EA82EB32E2408BF3EFF007F0840
:100D5800A60026080A128A11B4260A128A11080067
:100D680083120313A30023080A128A1149270A12BF
:100D78008A1183120313891009140730831203138D
:100D8800A2007C30A100A10BC72EA20BC72E000029
:100D9800831203130910080038300A128A11B42686
:100DA8000A128A110C300A128A11B4260A128A1100
:100DB80006300A128A11B4260A128A1180300A12E1
:100DC8008A11B4260A128A11080083120313A2009A
:100DD800891422080A128A1149270A128A118312D1
:100DE800031309140C3083120313A100A10BFA2E6C
:100DF80000008312031309108910080083120313DB
:100E0800A200A101221C092F0A2F0E2F2008FF0083
:100E18007F08A1070310A00D0310A20C2208031DD0
:100E2800162F172F062F21080800831603131813EF
:100E380018121815831603178711831603139A01BE
:100E4800193099000C169816831203139817181363
:100E58001816080007308A000408840A820700343C
:100E680043344F344E34543400345634313400341F
:100E78005634323400342E34003464008001840A3D
:100E88000406031900340406422F83120313A0003A
:060E98002008880008009C
:04400E00D420FF3F7C
:00000001FF
