:020000040000FA
:060000000A128A11122809
:10000800FE00030EF4000408F5000A08F600831247
:1000180003137F08F7000A128A11252D0A128A1184
:100028001528F801F901FA01FB0183120313B6013F
:10003800B701B801B901BA01BB01BC01BD01BE01DC
:10004800BF01C001C101C201C301C40183010A1279
:100058008A117E2C333083120313A6000030A700C8
:100068004408AE00AF012E08A8002F08A9000A1204
:100078008A11B7230A128A11831203132608FF0074
:100088007F08C1003330A6000030A7004408AE0046
:10009800AF012E08A0002F08A1006430A200003094
:1000A800A3000A128A11B3250A128A1183120313B4
:1000B8002108A9002008A8000A128A11B7230A12E9
:1000C8008A11831203132608B0002708B1004108DB
:1000D800B200B3013208A0003308A1009C30A2008E
:1000E800FF30A3000A128A11B3250A128A1183125B
:1000F800031320083007B40021080318210A310728
:10010800B5000A30A6000030A7003508A900340859
:10011800A8000A128A11B7230A128A11831203133C
:100128002608FF007F08C0003330A6000030A70073
:100138004408AE00AF012E08A0002F08A1006430CB
:10014800A2000030A3000A128A11B3250A128A11EC
:10015800831203132108A9002008A8000A128A1193
:10016800B7230A128A11831203132608B00027083E
:10017800B1009C30FF007F08A00041080A128A11D4
:100188004E260A128A1183120313B200F630FF00BA
:100198007F08A00040080A128A114E260A128A1106
:1001A8008312031332073007FF007F08BF00333084
:1001B800A6000030A7004308AE00AF012E08A80033
:1001C8002F08A9000A128A11B7230A128A1183126A
:1001D80003132608FF007F08BE003330A600003056
:1001E800A7004308AE00AF012E08A0002F08A10009
:1001F8006430A2000030A3000A128A11B3250A1243
:100208008A11831203132108A9002008A8000A12E2
:100218008A11B7230A128A11831203132608B00021
:100228002708B1003E08B200B3013208A000330825
:10023800A1009C30A200FF30A3000A128A11B32546
:100248000A128A118312031320083007B400210808
:100258000318210A3107B5000A30A6000030A700AC
:100268003508A9003408A8000A128A11B7230A120F
:100278008A11831203132608FF007F08BD0033305C
:10028800A6000030A7004308AE00AF012E08A0006A
:100298002F08A1006430A2000030A3000A128A11BE
:1002A800B3250A128A11831203132108A900200812
:1002B800A8000A128A11B7230A128A11831203139B
:1002C8002608B0002708B1009C30FF007F08A00076
:1002D8003E080A128A114E260A128A118312031343
:1002E800B200F630FF007F08A0003D080A128A110C
:1002F8004E260A128A118312031332073007FF00B1
:100308007F08BC004108303EFF007F08BB00400862
:10031800303EFF007F08BA003F08303EFF007F08EC
:10032800B9003E08303EFF007F08B8003D08303E67
:10033800FF007F08B7003C08303EFF007F08B6008A
:100348000800F300C4293F30831203139F05292AAC
:10035800831203131F083F3940389F00292A83124C
:1003680003131F083F3980389F00292AC0308312A1
:1003780003139F04292A3F30831203139F05292A58
:100388007308F100F2017208003A0319CC29BF2959
:100398007108003A0319A729013A0319AC29033A4D
:1003A8000319B329013A0319BA29BF29C3309F0594
:1003B800632A1F08C33904389F00632A1F08C339FA
:1003C80008389F00632A1F08C3390C389F00632A26
:1003D8001F08C33910389F00632A1F08C33914380F
:1003E8009F00632A1F08C33918389F00632A1F0813
:1003F800C3391C389F00632A1F08C33920389F005F
:10040800632A1F08C33924389F00632A1F08C33989
:1004180028389F00632A1F08C3392C389F00632A95
:100428001F08C33930389F00632A1F08C33934387E
:100438009F00632A1F08C33938389F00632A3C305D
:100448009F04632AC3309F05632A7008F100F201F4
:100458007208003A0319312A262A7108003A03194A
:10046800DA29013A0319DD29033A0319E229013A85
:100478000319E729073A0319EC29013A0319F12965
:10048800033A0319F629013A0319FB290F3A03190C
:10049800002A013A0319052A033A03190A2A013ADC
:1004A80003190F2A073A0319142A013A0319192ABA
:1004B800033A03191E2A013A0319232A262A0D3062
:1004C800F200FB30F100F10B672AF20B672A6C2A65
:1004D800831203139F141F14831603139F0108002C
:1004E80083120313A3008B2A3F309F05F02A1F08AD
:1004F8003F3940389F00F02A1F083F3980389F0055
:10050800F02AC0309F04F02A3F309F05F02A2308C4
:10051800A100A2012208003A0319932A882A210877
:10052800003A0319782A013A03197B2A033A031976
:10053800802A013A0319852A882AC3309F052A2B65
:100548001F08C33904389F002A2B1F08C3390838ED
:100558009F002A2B1F08C3390C389F002A2B1F081D
:10056800C33910389F002A2B1F08C33914389F003D
:100578002A2B1F08C33918389F002A2B1F08C33994
:100588001C389F002A2B1F08C33920389F002A2BAC
:100598001F08C33924389F002A2B1F08C33928385D
:1005A8009F002A2B1F08C3392C389F002A2B1F08AD
:1005B800C33930389F002A2B1F08C33934389F00AD
:1005C8002A2B1F08C33938389F002A2B3C309F0438
:1005D8002A2BC3309F052A2B2008A100A20122083C
:1005E800003A0319F82AED2A2108003A0319A12A2A
:1005F800013A0319A42A033A0319A92A013A03194B
:10060800AE2A073A0319B32A013A0319B82A033A5A
:100618000319BD2A013A0319C22A0F3A0319C72A36
:10062800013A0319CC2A033A0319D12A013A0319CA
:10063800D62A073A0319DB2A013A0319E02A033AB2
:100648000319E52A013A0319EA2AED2A0D30831223
:100658000313A200FB30A100A10B302BA20B302BFF
:10066800831203139F141F14831603139F0108009A
:100678007F2B2830831203139900B62B83120313A0
:100688003B089900B62B2E30831203139900B62B22
:10069800831203133A089900B62B831203133908FF
:1006A8009900B62B2930831203139900B62B2C30EE
:1006B800831203139900B62B203083120313990079
:1006C800B62B8312031338089900B62B8312031331
:1006D80037089900B62B8312031336089900B62BF6
:1006E8002930831203139900F8010D308312031384
:1006F8009900F801B62B7808F000F1017108003A6A
:100708000319872BB62B7008003A03193D2B013AC1
:100718000319422B033A0319472B013A03194C2BAF
:10072800073A0319512B013A0319562B033A0319B7
:100738005B2B013A0319602B0F3A03193D2B013A41
:100748000319652B033A0319472B013A03196A2B3E
:10075800073A03196F2B013A0319742B033A03194B
:10076800792BB62B080083120313AB01A71FBD2BEF
:10077800BE2BC52BA609A709A60A0319A70AAB0110
:10078800AB0AA91FC82BC92BD22BA809A909A80AEB
:100798000319A90A0130FF007F08AB06AC01AD01BF
:1007A800260827040319D92BDA2B112CAA01AA0A27
:1007B800E82B01300310A60DA70DFF3E031DDE2B0D
:1007C8000130FF007F08AA07A71FEB2BEC2BDD2BBE
:1007D80001300310AC0DAD0DFF3E031DED2B2708B6
:1007E8002902031DF92B26082802031CFC2BFD2BCC
:1007F800042C2608A8022708031CA903A9022C1404
:1008080001300310A70CA60CFF3E031D052C013078
:10081800AA02031D102C112CEC2B2B080319152CE4
:10082800162C1B2CAC09AD09AC0A0319AD0A2D080E
:10083800A7002C08A600080083120313A2005A2C54
:10084800831603130F138F120F127C2C83160313B6
:100858000F138F120F167C2C831603130F138F168A
:100868000F127C2C831603130F138F160F167C2C74
:10087800831603130F178F120F127C2C8316031382
:100888000F178F120F167C2C831603130F178F1652
:100898000F127C2C831603130F178F160F167C2C40
:1008A800831603130F178F160F127C2C2208A00033
:1008B800A1012108003A0319622C542C2008003A9F
:1008C8000319242C013A03192A2C033A0319302C52
:1008D800013A0319362C073A03193C2C013A03193B
:1008E800422C033A0319482C013A03194E2C542C74
:1008F8000F1408000A128A11D9240A128A118312C5
:100908000313A401A40A01300A128A11DA250A1273
:100918008A1106300A128A118A250A128A110530AC
:10092800FF007F0883120313A40001300A128A1102
:10093800DA250A128A1109300A128A118A250A123E
:100948008A110A30FF007F0883120313A4000130C4
:100958000A128A11DA250A128A1101300A128A113A
:100968008A250A128A110230FF007F0883120313B6
:10097800A40002300A128A11DA250A128A110A1210
:100988008A112E200A128A1115308312031342028B
:10099800031CCF2CD02CC32C9F14C2018316031325
:1009A8000C16C32C0A128A11122883160313880105
:1009B800890106300A128A1120240A128A110C3081
:1009C800FF007F0883120313A00001300A128A1166
:1009D80074220A128A110A128A1165260A128A11C9
:1009E8000A128A111C260A128A118A300A128A11DE
:1009F80000260A128A11831603178801033089001A
:100A080083120313850186018701880189018030DB
:100A18008316031387008501033086008730810021
:100A28008B178B160B170C170B11831203130C1350
:100A38000C12831603130C168C16831203138C12D4
:100A480008000B1D282D292D302DEC308100013098
:100A5800FF007F08C2070B110C1F332D342D3C2DCE
:100A68000A128A1160250A128A11831203130C13C1
:100A78008C1E3F2D402D442D1A08FF007F08F900D9
:100A88000C1E472D482D542D0A128A113C230A1298
:100A98008A110130FF007F08F807831603130C1230
:100AA80077088312FF0076088A0075088400740EA0
:100AB8008300FE0E7E0E09007A08031D642D652D45
:100AC800782D0C30FF007F08F00001300A128A11DF
:100AD800A5210A128A11831203131E08FF007F083A
:100AE800C400FA01FA0A892D0A30FF007F08F000D5
:100AF80001300A128A11A5210A128A1183120313DE
:100B08001E08FF007F08C300FA01080083120313C0
:100B1800A500A301A401A52D2308250784000A1216
:100B28008A117A260A128A110A128A1135260A129D
:100B38008A11013083120313A3070318A40A003093
:100B4800A4072308250784000A128A117A260A12A4
:100B58008A11003A031DB12DB22D902D0800831281
:100B68000313A401A501201CBA2DBB2DC12D2208F9
:100B7800A4070318A50A2308A50701300310A20D2E
:100B8800A30DFF3E031DC22D01300310A10CA00CC4
:100B9800FF3E031DC92D20082104031DD42DD52D8A
:100BA800B72D2508A1002408A0000800831203130C
:100BB800A5002503031DE12DE22DEE2D24087F3E1F
:100BC800FF007F08A60026080A128A1100260A12CA
:100BD8008A11FF2D02302506031DF32DF42DFF2D5C
:100BE8002408BF3EFF007F08A60026080A128A11C3
:100BF80000260A128A11080083120313A30023088F
:100C08000A128A118B260A128A1183120313891079
:100C18000914073083120313A2007C30A100A10B32
:100C2800132EA20B132E00008312031309100800C1
:100C380038300A128A1100260A128A110C300A1258
:100C48008A1100260A128A1106300A128A11002611
:100C58000A128A1180300A128A1100260A128A1191
:100C6800080083120313A200891422080A128A11A9
:100C78008B260A128A118312031309140C3083126B
:100C88000313A100A10B462E0000831203130910C1
:100C98008910080083120313A200A101221C552EFB
:100CA800562E5A2E2008FF007F08A1070310A00D1A
:100CB8000310A20C2208031D622E632E522E210857
:100CC8000800831603131813181218158316031730
:100CD8008711831603139A01193099000C16981678
:100CE80083120313981718131816080006308A0081
:100CF8000408840A8207003443344F344E34543491
:100D080000345634313400345634323400348312CB
:0A0D18000313A00020088800080063
:04400E00D420FF3F7C
:00000001FF
