:020000040000FA
:060000000A128A11122809
:10000800FE00030EF4000408F5000A08F600831247
:1000180003137F08F7000A128A11342A0A128A1178
:100028001528F801F901FA01FB01FC01FD01831211
:100038000313A40183010A128A11F02AF200DF28AF
:1000480083120313071087100711871107128712ED
:100058000717871719298312031307148710071125
:100068008715071687160717871719298312031389
:1000780007108710071587110712871607138717A8
:100088001929831203130710871007118711071600
:100098008716071387171929831203130714871064
:1000A800071187150716871207138717192983124F
:1000B80003130710871407118711071687120713F0
:1000C800871719298312031307108714071187113B
:1000D80007128712071387171929831203130710AA
:1000E8008710071187150716871607178717192905
:1000F800831203130710871007118711071287123D
:10010800071387171929831203130710871007117C
:1001180087110716871207138717192983120313E4
:1001280007108710071187150712871207138717FB
:10013800192983120313071487140711871107124B
:1001480087120713871719298312031307108714B7
:10015800071587110712871207178717192983129E
:10016800031307148710071187110712871607133F
:100178008717192983120313071087140715871186
:1001880007128712071387171929831203130710F9
:100198008714071587150712871207138717192958
:1001A800831203130710871007118711071287128C
:1001B8000717871719297208F000F1017108003A2A
:1001C8000319E728D4287008003A03192428013AAB
:1001D80003192F28033A03193A28013A0319452825
:1001E800073A03195028013A03195B28033A0319FF
:1001F8006628013A031971280F3A03197C28013A35
:1002080003198728033A03199228013A03199D28EC
:10021800073A0319A828013A0319B328033A03191E
:10022800BE28013A0319C928D428080083120313E9
:10023800A30031293F309F0596291F083F394038D0
:100248009F0096291F083F3980389F009629C030A3
:100258009F0496293F309F0596292308A100A201F3
:100268002208003A031939292E292108003A0319CE
:100278001E29013A03192129033A03192629013AAB
:1002880003192B292E29C3309F05D0291F08C339EC
:1002980004389F00D0291F08C33908389F00D02987
:1002A8001F08C3390C389F00D0291F08C3391038DC
:1002B8009F00D0291F08C33914389F00D0291F0870
:1002C800C33918389F00D0291F08C3391C389F002C
:1002D800D0291F08C33920389F00D0291F08C339E7
:1002E80024389F00D0291F08C33928389F00D029F7
:1002F8001F08C3392C389F00D0291F08C33930384C
:100308009F00D0291F08C33934389F00D0291F08FF
:10031800C33938389F00D0293C309F04D029C330D6
:100328009F05D0292008A100A2012208003A03193C
:100338009E2993292108003A03194729013A0319EC
:100348004A29033A03194F29013A03195429073A4C
:1003580003195929013A03195E29033A0319632934
:10036800013A031968290F3A03196D29013A03194B
:100378007229033A03197729013A03197C29073AA4
:1003880003198129013A03198629033A03198B298C
:10039800013A0319902993299F141F1483160313F4
:1003A8009F01080083120313A200102A8316031367
:1003B8000F138F120F12322A831603130F138F1283
:1003C8000F16322A831603130F138F160F12322AB1
:1003D800831603130F138F160F16322A831603136F
:1003E8000F178F120F12322A831603130F178F124B
:1003F8000F16322A831603130F178F160F12322A7D
:10040800831603130F178F160F16322A831603133A
:100418000F178F120F12322A2208A000A1012108FB
:10042800003A0319182A0A2A2008003A0319DA2977
:10043800013A0319E029033A0319E629013A031995
:10044800EC29073A0319F229013A0319F829033A62
:100458000319FE29013A0319042A0A2A0F1408006D
:100468000B1D372A382A402AEC3081000B110A125A
:100478008A11BA220A128A11831203130C1F452A01
:10048800462A4C2A1E08FF007F08A4000C139F145C
:100498000B1C4F2A502A792A0618532A542A572AFD
:1004A800FD01FD0A652A7D03031D5B2A5C2A652A76
:1004B800061C5F2A602A652AFD010130FF007F08BB
:1004C80088078618682A692A6C2AFC01FC0A782A97
:1004D8007C03031D702A712A782A861C742A752ABF
:1004E800782AFC01013088020B107708FF00760893
:1004F8008A0075088400740E8300FE0E7E0E0900C3
:100508000A300A128A11D6210A128A118312031399
:10051800A00102300A128A111A210A128A118316BE
:1005280003178801013088008901831203138501AC
:100538008601870188018901053083160313850028
:1005480003308600870188018901073081008B17F5
:100558008B160B170C170B11831203130C138B1527
:100568000B1003308316031396000800831203133D
:10057800851105127908031DC22AC32AD22A240824
:100588000F39FF007F08FA0085157A080A128A11C8
:1005980022200A128A11F901F90AEF2A2408FF0019
:1005A8007F08FB007B08F039FF007F08FB007B0811
:1005B800F30004300310F30CFF3E031DDE2A73081A
:1005C800FF007F08FB0005167B080A128A1122200B
:1005D8000A128A11F90108000A128A1184220A12E1
:1005E8008A1183120313240808020318FC2AFD2A1F
:1005F800FF2A8514F52A8510F52A0A128A1112286D
:04400E00D420FF3F7C
:00000001FF
