:020000040000FA
:060000000A128A1110280B
:10000800FE00030EF0000A08F100831203137F08B4
:10001800F2000A128A1136290A128A111328F701E6
:10002800F80183010A128A119029F60038283F3016
:10003800831203139F059D28831203131F083F395A
:1000480040389F009D28831203131F083F398038CA
:100058009F009D28C030831203139F049D283F30C2
:10006800831203139F059D287608F400F50175088F
:10007800003A0319402833287408003A03191B284A
:10008800013A03192028033A03192728013A0319CA
:100098002E283328C3309F05D7281F08C3390438B2
:1000A8009F00D7281F08C33908389F00D7281F0882
:1000B800C3390C389F00D7281F08C33910389F0050
:1000C800D7281F08C33914389F00D7281F08C339F9
:1000D80018389F00D7281F08C3391C389F00D72815
:1000E8001F08C33920389F00D7281F08C339243870
:1000F8009F00D7281F08C33928389F00D7281F0812
:10010800C3392C389F00D7281F08C33930389F00BF
:10011800D7281F08C33934389F00D7281F08C33988
:1001280038389F00D7283C309F04D728C3309F0514
:10013800D7287308F400F5017508003A0319A528B3
:100148009A287408003A03194E28013A03195128CD
:10015800033A03195628013A03195B28073A031989
:100168006028013A03196528033A03196A28013AF5
:1001780003196F280F3A03197428013A03197928CB
:10018800033A03197E28013A03198328073A031909
:100198008828013A03198D28033A03199228013A4D
:1001A800031997289A289F141F140800F50012298C
:1001B800831603130F138F120F1234298316031398
:1001C8000F138F120F163429831603130F138F166C
:1001D8000F123429831603130F138F160F163429A1
:1001E800831603130F178F120F1234298316031364
:1001F8000F178F120F163429831603130F178F1634
:100208000F123429831603130F178F160F1634296C
:10021800831603130F178F120F1234297508F30072
:10022800F4017408003A03191A290C297308003AD2
:100238000319DC28013A0319E228033A0319E828CC
:10024800013A0319EE28073A0319F428013A031969
:10025800FA28033A03190029013A031906290C2937
:100268000F1408000B1D39293A293D29EC3081006B
:100278000B110C1F4029412944291E0887000C1323
:10028800851C472948294B29F801F80A5B29780376
:10029800031D4F2950295B298518532954295B29A7
:1002A800F8010130FF007F08F70777088600720819
:1002B800FF0071088A00700E8300FE0E7E0E090092
:1002C8000A300A128A11DA200A128A11F30101305F
:1002D8000A128A1119200A128A110130831603178B
:1002E800880089018312031385018601870188012B
:1002F8008901073083160313850086018701880169
:100308008901873081008B178B160B170C170B117F
:10031800831203130C1308000A128A1164210A12AB
:0A0328008A1195290A128A11102883
:04400E00D420FF3F7C
:00000001FF
