:020000040000FA
:060000000A128A110C280F
:10000800FE00030EF0000A08F1000A128A11762990
:100018000A128A110F2883010A128A118F29F50002
:100028002D283F30831203139F05AF288312031333
:100038001F083F3940389F00AF28831203131F0859
:100048003F3980389F00AF28C030831203139F04C4
:10005800AF287508F300F4017408003A031935282D
:10006800AF287308003A03191528013A03191A280A
:10007800033A03192128013A03192828AF28C33065
:10008800831203139F05E928831203131F08C3393A
:1000980004389F00E928831203131F08C33908385E
:1000A8009F00E928831203131F08C3390C389F00E7
:1000B800E928831203131F08C33910389F00E92861
:1000C800831203131F08C33914389F00E9288312C9
:1000D80003131F08C33918389F00E9288312031334
:1000E8001F08C3391C389F00E928831203131F080F
:1000F800C33920389F00E928831203131F08C33926
:1001080024389F00E928831203131F08C3392838AD
:100118009F00E928831203131F08C3392C389F0056
:10012800E928831203131F08C33930389F00E928D0
:10013800831203131F08C33934389F00E928831238
:1001480003131F08C33938389F00E9283C3083124D
:1001580003139F04E9287208F300F4017408003AB5
:100168000319B728E9287308003A03194328013A04
:1001780003194828033A03194F28013A0319562846
:10018800073A03195D28013A03196428033A031949
:100198006B28013A031972280F3A03197928013A92
:1001A80003198028033A03198728013A03198E286E
:1001B800073A03199528013A03199C28033A0319A9
:1001C800A328013A0319AA28E928831203139F14C4
:1001D8001F140800F4002629831603130F138F1227
:1001E8000F124829831603130F138F120F1648296D
:1001F800831603130F138F160F1248298316031340
:100208000F138F160F164829831603130F178F1213
:100218000F124829831603130F178F120F16482938
:10022800831603130F178F160F124829831603130B
:100238000F178F160F164829831603130F178F12DF
:100248000F1248297408F200F3017308003A0319E1
:100258002E2920297208003A0319F028013A0319B7
:10026800F628033A0319FC28013A03190229073A28
:1002780003190829013A03190E29033A0319142905
:10028800013A03191A2920290F1408000A300A1202
:100298008A11EE200A128A11F20101300A128A111B
:1002A80013200A128A110130831603178800890166
:1002B80083120313850186018701880189010730AC
:1002C8008316031385008601870188018901873019
:1002D80081008B178B160B170C170B118312031346
:1002E8000C1308000B1D79297A297F29EC30831219
:1002F800031381000B11831203130C1F8429852912
:1003080088291E0886000C1371088A00700E830065
:10031800FE0E7E0E09000A128A114A210A128A115B
:0803280094290A128A110C2825
:04400E00D420FF3F7C
:00000001FF
