:020000040000FA
:060000000A128A1110280B
:10000800FE00030EF1000A08F200831203137F08B2
:10001800F3000A128A1179290A128A111328F801A1
:10002800F90183010A128A11A329F70038283F3001
:10003800831203139F059D28831203131F083F395A
:1000480040389F009D28831203131F083F398038CA
:100058009F009D28C030831203139F049D283F30C2
:10006800831203139F059D287708F500F60176088B
:10007800003A0319402833287508003A03191B2849
:10008800013A03192028033A03192728013A0319CA
:100098002E283328C3309F05D7281F08C3390438B2
:1000A8009F00D7281F08C33908389F00D7281F0882
:1000B800C3390C389F00D7281F08C33910389F0050
:1000C800D7281F08C33914389F00D7281F08C339F9
:1000D80018389F00D7281F08C3391C389F00D72815
:1000E8001F08C33920389F00D7281F08C339243870
:1000F8009F00D7281F08C33928389F00D7281F0812
:10010800C3392C389F00D7281F08C33930389F00BF
:10011800D7281F08C33934389F00D7281F08C33988
:1001280038389F00D7283C309F04D728C3309F0514
:10013800D7287408F500F6017608003A0319A528AF
:100148009A287508003A03194E28013A03195128CC
:10015800033A03195628013A03195B28073A031989
:100168006028013A03196528033A03196A28013AF5
:1001780003196F280F3A03197428013A03197928CB
:10018800033A03197E28013A03198328073A031909
:100198008828013A03198D28033A03199228013A4D
:1001A800031997289A289F141F14831603139F0175
:1001B8001F169F160800F6001729831603130F133E
:1001C8008F120F123929831603130F138F120F166C
:1001D8003929831603130F138F160F123929831623
:1001E80003130F138F160F163929831603130F17CE
:1001F8008F120F123929831603130F178F120F1638
:100208003929831603130F178F160F1239298316EE
:1002180003130F178F160F163929831603130F1799
:100228008F160F1239297608F400F5017508003A7F
:1002380003191F2911297408003A0319E128013A02
:100248000319E728033A0319ED28013A0319F3289B
:10025800073A0319F928013A0319FF28033A031941
:100268000529013A03190B2911290F1408000A302E
:10027800FF007F08F40001300A128A1119200A12BF
:100288008A1106300A128A11DF200A128A11F40133
:10029800F501F60124300A128A11BA210A128A11CC
:1002A800831603178801023089008312031385011E
:1002B80086018701880189010830831603138700A6
:1002C800203085000230860088018901873081004E
:1002D8008B170B170C17831203130C138C1183162F
:1002E80003138C158B160B1108000B1D7C297D2917
:1002F8008429EC3081000130FF007F08F8070B11DA
:100308008C1D87298829912979080A128A11D021F8
:100318000A128A11831203138C110C1F9429952930
:100328009A291E08FF007F08F9000C137308FF00C4
:1003380072088A00710E8300FE0E7E0E09000A12F2
:100348008A113B210A128A1115307802031CAD2943
:10035800AE29B229831203139F14F8017908831276
:1003680003138800A8290A128A111028F700831697
:1003780003138712771DC129C229C629760894005C
:100388008715CA29740876049400871177087504BC
:100398008312031394000800F000700883120313FB
:0403A80093000800B6
:04400E00D420FF3F7C
:00000001FF
