:020000040000FA
:060000000A128A1110280B
:10000800FE00030EF1000A08F200831203137F08B2
:10001800F3000A128A1177290A128A111328F801A3
:10002800F90183010A128A119E29F70038283F3006
:10003800831203139F059D28831203131F083F395A
:1000480040389F009D28831203131F083F398038CA
:100058009F009D28C030831203139F049D283F30C2
:10006800831203139F059D287708F500F60176088B
:10007800003A0319402833287508003A03191B2849
:10008800013A03192028033A03192728013A0319CA
:100098002E283328C3309F05D7281F08C3390438B2
:1000A8009F00D7281F08C33908389F00D7281F0882
:1000B800C3390C389F00D7281F08C33910389F0050
:1000C800D7281F08C33914389F00D7281F08C339F9
:1000D80018389F00D7281F08C3391C389F00D72815
:1000E8001F08C33920389F00D7281F08C339243870
:1000F8009F00D7281F08C33928389F00D7281F0812
:10010800C3392C389F00D7281F08C33930389F00BF
:10011800D7281F08C33934389F00D7281F08C33988
:1001280038389F00D7283C309F04D728C3309F0514
:10013800D7287408F500F6017608003A0319A528AF
:100148009A287508003A03194E28013A03195128CC
:10015800033A03195628013A03195B28073A031989
:100168006028013A03196528033A03196A28013AF5
:1001780003196F280F3A03197428013A03197928CB
:10018800033A03197E28013A03198328073A031909
:100198008828013A03198D28033A03199228013A4D
:1001A800031997289A289F141F14831603139F0175
:1001B8000800F6001529831603130F138F120F1268
:1001C8003729831603130F138F120F163729831637
:1001D80003130F138F160F123729831603130F13E8
:1001E8008F160F163729831603130F178F120F1246
:1001F8003729831603130F178F120F163729831603
:1002080003130F178F160F123729831603130F17AF
:100218008F160F163729831603130F178F160F1211
:1002280037297608F400F5017508003A03191D29E5
:100238000F297408003A0319DF28013A0319E52841
:10024800033A0319EB28013A0319F128073A03196D
:10025800F728013A0319FD28033A03190329013A3B
:10026800031909290F290F1408000C30FF007F0813
:10027800F40001300A128A1119200A128A11063074
:100288000A128A11DD200A128A11F401F501F60119
:1002980024300A128A11B5210A128A11831603170B
:1002A80088010130890083120313850186018701C3
:1002B80088018901083083160313870020308500E0
:1002C8000130860088018901873081008B170B1760
:1002D8000C17831203130C138C11831603138C153C
:1002E8008B160B1108000B1D7A297B298229EC300B
:1002F80081000130FF007F08F8070B118C15790881
:100308000A128A11CB210A128A11831203138C1143
:100318000C1F8F29902995291E08FF007F08F900D6
:100328000C137308FF0072088A00710E8300FE0E1A
:100338007E0E09000A128A1139210A128A11153013
:100348007802031CA829A929AD29831203139F1435
:10035800F8017908831203138800A3290A128A1165
:100368001028F700831603138712771DBC29BD29AF
:10037800C129760894008715C52974087604940065
:100388008711770875048312031394000800F0009E
:0A039800700883120313930008009D
:04400E00D420FF3F7C
:00000001FF
