:020000040000FA
:060000000A128A1110280B
:10000800FE00030EF0000A08F100831203137F08B4
:10001800F2000A128A1168290A128A111328F701B4
:10002800F80183010A128A117A29F60038283F302C
:10003800831203139F059D28831203131F083F395A
:1000480040389F009D28831203131F083F398038CA
:100058009F009D28C030831203139F049D283F30C2
:10006800831203139F059D287608F400F50175088F
:10007800003A0319402833287408003A03191B284A
:10008800013A03192028033A03192728013A0319CA
:100098002E283328C3309F05D7281F08C3390438B2
:1000A8009F00D7281F08C33908389F00D7281F0882
:1000B800C3390C389F00D7281F08C33910389F0050
:1000C800D7281F08C33914389F00D7281F08C339F9
:1000D80018389F00D7281F08C3391C389F00D72815
:1000E8001F08C33920389F00D7281F08C339243870
:1000F8009F00D7281F08C33928389F00D7281F0812
:10010800C3392C389F00D7281F08C33930389F00BF
:10011800D7281F08C33934389F00D7281F08C33988
:1001280038389F00D7283C309F04D728C3309F0514
:10013800D7287308F400F5017508003A0319A528B3
:100148009A287408003A03194E28013A03195128CD
:10015800033A03195628013A03195B28073A031989
:100168006028013A03196528033A03196A28013AF5
:1001780003196F280F3A03197428013A03197928CB
:10018800033A03197E28013A03198328073A031909
:100198008828013A03198D28033A03199228013A4D
:1001A800031997289A289F141F14831603139F0175
:1001B8000800F5001529831603130F138F120F1269
:1001C8003729831603130F138F120F163729831637
:1001D80003130F138F160F123729831603130F13E8
:1001E8008F160F163729831603130F178F120F1246
:1001F8003729831603130F178F120F163729831603
:1002080003130F178F160F123729831603130F17AF
:100218008F160F163729831603130F178F160F1211
:1002280037297508F300F4017408003A03191D29E9
:100238000F297308003A0319DF28013A0319E52842
:10024800033A0319EB28013A0319F128073A03196D
:10025800F728013A0319FD28033A03190329013A3B
:10026800031909290F290F1408000C30FF007F0813
:10027800F30001300A128A1119200A128A11063075
:100288000A128A11DD200A128A11831603178801BF
:1002980001308900831203138501860187018801D3
:1002A8008901083083160313870020308500033046
:1002B800860088018901873081008B170B170C177E
:1002C800831203130C1308000C1F6B296C29712966
:1002D8001E08FF007F08F8000C137208FF00710861
:1002E8008A00700E8300FE0E7E0E09000A128A1123
:1002F80039210A128A11831203139F14780888007F
:080308007F290A128A11102856
:04400E00D420FF3F7C
:00000001FF
