:020000040000FA
:060000000A128A11122809
:10000800FE00030EF8000408F9000A08FA0083123B
:1000180003137F08FB000A128A11932B0A128A1114
:100028001528F001F101F201F301F401F501831340
:10003800203084003B300A128A111F240A128A11C8
:1000480083010A128A11BD2B75080F39FF007F083A
:1000580083120313B7007508BB0004300310BB0CF0
:10006800FF3E031D32283B080F39FF007F08B6000A
:1000780074080F39FF007F08B5007408BB0004300E
:100088000310BB0CFF3E031D44283B080F39FF003B
:100098007F08B40073080F39FF007F08B3007308A6
:1000A800BB0004300310BB0CFF3E031D56283B0861
:1000B8000F39FF007F08B20072080F39FF007F0870
:1000C800B1007208BB0004300310BB0CFF3E031DD7
:1000D80068283B080F39FF007F08B00071080F3906
:1000E800FF007F08AF007108BB0004300310BB0C91
:1000F800FF3E031D7A283B080F39FF007F08AE003A
:1001080070080F39FF007F08AD007008BB0004308D
:100118000310BB0CFF3E031D8C283B080F39FF0062
:100128007F08AC003708303EFF007F08AB00360878
:10013800303EFF007F08AA003508303EFF007F08E8
:10014800A9003408303EFF007F08A8003308303E7D
:10015800FF007F08A7003208303EFF007F08A60096
:100168003108303EFF007F08A5003008303EFF0010
:100178007F08A4002F08303EFF007F08A3002E0848
:10018800303EFF007F08A2002D08303EFF007F08A8
:10019800A1002C08303EFF007F08A00008000529B8
:1001A800203099004A292B0899004A292A089900E1
:1001B8004A293A3099004A29290899004A292808E1
:1001C80099004A29270899004A29260899004A29A6
:1001D800310899004A29300899004A292F30990096
:1001E8004A29230899004A29220899004A292108FE
:1001F80099004A29200899004A290A309900B9012A
:100208004A29831203133908F600F7017708003AE0
:1002180003190F294A297608003A0319D428013A04
:100228000319D728033A0319DA28013A0319DD28F4
:10023800073A0319E028013A0319E328033A031996
:10024800DD28013A0319E6280F3A0319E928013A8B
:100258000319D428033A0319EC28013A0319EF28A3
:10026800073A0319F228013A0319F528033A031942
:10027800F828013A0319F2281F3A0319FB28013A12
:100288000319FE28033A031901294A2908000A120A
:100298008A1116240A128A11D13083120313BB0063
:1002A8000030BC000A128A1103240A128A11003095
:1002B80083120313BB00BC000A128A1103240A121A
:1002C8008A110A128A1116240A128A11D13083124D
:1002D8000313BB000030BC000A128A1103240A125F
:1002E8008A1101300A128A1162230A128A11FF0048
:1002F8007F08F50001300A128A1162230A128A1156
:10030800FF007F08F40001300A128A1162230A12E2
:100318008A11FF007F08F30001300A128A11622354
:100328000A128A11FF007F0883120313B8000130F4
:100338000A128A1162230A128A11FF007F08F2004A
:1003480001300A128A1162230A128A11FF007F08FB
:10035800F10000300A128A1162230A128A11FF0082
:100368007F08F0000A128A110D240A128A11080067
:100378000A128A1116240A128A11D0308312031322
:10038800BB000030BC000A128A1103240A128A1129
:10039800003083120313BB00BC000A128A11032425
:1003A8000A128A11003083120313BB00BC000A1220
:1003B8008A1103240A128A11033083120313BB0023
:1003C8000030BC000A128A1103240A128A11533021
:1003D80083120313BB000030BC000A128A110324E5
:1003E8000A128A11013083120313BB000030BC00CB
:1003F8000A128A1103240A128A1120308312031365
:10040800BB000030BC000A128A1103240A128A11A8
:10041800103083120313BB000030BC000A128A118B
:1004280003240A128A11213083120313BB000030FF
:10043800BC000A128A1103240A128A110A128A11AC
:100448000D240A128A110800003083120313C70012
:100458000030C6000030C5000030C4003E083D042E
:100468003C043B040319392A3A2A872AC801C80AD6
:100478004A2A0130C3000310BB0DBC0DBD0DBE0DD3
:10048800C30B3F2A0130FF007F08C807BE1F4D2A53
:100498004E2A3D2A0130C3000310C40DC50DC60DF8
:1004A800C70DC30B502A3E084202031D652A3D08AA
:1004B8004102031D652A3C084002031D652A3B08CA
:1004C8003F02031C682A692A782A3B08BF023C08B5
:1004D800031C3C0FC0023D08031C3D0FC1023E082F
:1004E800031C3E0FC202441401300310BE0CBD0CA5
:1004F800BC0CBB0CFF3E031D792A0130C802031D4A
:10050800862A872A4E2A4708BE004608BD004508A5
:10051800BC004408BB00080083120313BD00CA2AAC
:10052800831603130F138F120F12EC2A831603136B
:100538000F138F120F16EC2A831603130F138F163F
:100548000F12EC2A831603130F138F160F16EC2ABB
:10055800831603130F178F120F12EC2A8316031337
:100568000F178F120F16EC2A831603130F178F1607
:100578000F12EC2A831603130F178F160F16EC2A87
:10058800831603130F178F160F12EC2A3D08BB00B2
:10059800BC013C08003A0319D22AC42A3B08003A95
:1005A8000319942A013A03199A2A033A0319A02A2B
:1005B800013A0319A62A073A0319AC2A013A031982
:1005C800B22A033A0319B82A013A0319BE2AC42ADF
:1005D8000F14080006300A128A1190220A128A1192
:1005E8000A128A11E1230A128A118316031385015C
:1005F80086018801890183160317880189018312FE
:1006080003138501860187018801890187308316D4
:10061800031381008B170B17831203130C12831615
:1006280003130C160B118B16003083120313CC0026
:100638000130CB008630CA00A030C9000A128A11E6
:1006480028230A128A110800283083120313940001
:10065800831603139101831203134908CD004A0836
:10066800CE004B08CF004C08D00002300310CD0D4F
:10067800CE0DCF0DD00DFF3E031D3A2B5008BE0006
:100688004F08BD004E08BC004D08BB000030C2003A
:100698003D30C1000930C0000030BF000A128A1185
:1006A80028220A128A11831203133B08FF3E83167D
:1006B8000313930094018715071608008312031388
:1006C800BD000A128A11F6230A128A11831603132F
:1006D80091150A128A11F6230A128A11831203133A
:1006E8001308BB00BC013B08BE003C08BF000A124F
:1006F8008A11F6230A128A11831203133D03031D7C
:10070800862B872B8B2B8316031391128E2B831624
:10071800031391161116831203133E0808000B1DCC
:10072800962B972B9E2BEC3081000130FF007F0821
:10073800BA070B110C1EA12BA22BB12B0A128A117E
:10074800D3200A128A110130FF007F088312031395
:10075800B9070C12831603130C127B088312FF00CF
:100768007A088A0079088400780E8300FE0E7E0ECF
:1007780009000A128A11EE220A128A110A128A1133
:10078800BC210A128A111530831203133A02031C82
:10079800CE2BCF2BDE2BBA01831603130C160A12AD
:1007A8008A114B210A128A110A128A1128200A1268
:1007B8008A11D32B0A128A111228831603131813CD
:1007C80018121815831603178711831603139A0135
:1007D800193099000C1698168312031398171813DA
:1007E80018160800831603131419FB2BFC2BF62B81
:1007F80011081F39031D012C022CF62B08000A12C0
:100808008A11F6230A128A11831203133B089300F4
:1008180008000A128A11F6230A128A118316031392
:10082800111508000A128A11F6230A128A11831672
:1008380003131114080064008001840A04060319D4
:0608480000340406202C20
:04400E00D420FF3F7C
:00000001FF
