:020000040000FA
:060000000A128A110C280F
:10000800FE00030EF0000A08F1000A128A114B29BB
:100018000A128A110F2883010A128A114229003014
:1000280083120313A3000030A2000030A1000030A7
:10003800A000750874047304720403192428252881
:100048007228A401A40A35280130FA000310F20D21
:10005800F30DF40DF50DFA0B2A280130FF007F0887
:10006800A407F51F3828392828280130FA0003107A
:10007800A00DA10DA20DA30DFA0B3B28750879025E
:10008800031D502874087802031D5028730877024E
:10009800031D502872087602031C5328542863282D
:1000A8007208F6027308031C730FF7027408031C26
:1000B800740FF8027508031C750FF902201401303B
:1000C8000310F50CF40CF30CF20CFF3E031D64282E
:1000D8000130A402031D7128722839282308F5006D
:1000E8002208F4002108F3002008F2000800F400B8
:1000F800B328831603130F138F120F12D5288316F4
:1001080003130F138F120F16D528831603130F131B
:100118008F160F12D528831603130F138F160F1679
:10012800D528831603130F178F120F12D52883169D
:1001380003130F178F120F16D528831603130F17E3
:100148008F160F12D528831603130F178F160F1645
:10015800D528831603130F178F160F12D528740886
:10016800F200F3017308003A0319BB28AD2872089E
:10017800003A03197D28013A03198328033A031921
:100188008928013A03198F28073A03199528013A53
:1001980003199B28033A0319A128013A0319A72830
:1001A800AD280F1408002830831203139400831617
:1001B80003139101831203132508A9002608AA0036
:1001C8002708AB002808AC0002300310A90DAA0DBF
:1001D800AB0DAC0DFF3E031DE9282C08F5002B08DC
:1001E800F4002A08F3002908F2000030F9003D3035
:1001F800F8000930F7000030F6000A128A111320BF
:100208000A128A117208FF3E8316031393009401A1
:10021800871507160800003083120313A800013061
:10022800A7008630A600A030A5000A128A11D720A0
:100238000A128A1106300A128A117B200A128A11C0
:100248008316031385018901831603178801890121
:1002580083120313850186018701880189018316AA
:10026800031388018601873081008B170B178312CF
:1002780003130C12831603130C1608000A128A11B2
:100288000F210A128A1147290A128A110C287108AB
:0C0298008A00700E8300FE0E7E0E09002E
:04400E00D420FF3F7C
:00000001FF
