:020000040000FA
:060000000A128A11122809
:10000800FE00030EF8000408F9000A08FA0083123B
:1000180003137F08FB000A128A11EF2A0A128A11B9
:100028001528F001F101F201F301F401F501831340
:10003800203084003D300A128A1160240A128A1185
:1000480083010A128A11FE2B75080F39FF007F08F9
:1000580083120313B8007508BD0004300310BD0CEB
:10006800FF3E031D32283D080F39FF007F08B70007
:1000780074080F39FF007F08B6007408BD0004300B
:100088000310BD0CFF3E031D44283D080F39FF0037
:100098007F08B50073080F39FF007F08B4007308A4
:1000A800BD0004300310BD0CFF3E031D56283D085B
:1000B8000339FF007F08B30072080F39FF007F087B
:1000C800B2007208BD0004300310BD0CFF3E031DD2
:1000D80068283D080F39FF007F08B10071080F3903
:1000E800FF007F08B0007108BD0004300310BD0C8C
:1000F800FF3E031D7A283D080F39FF007F08AF0037
:100108003A080F39FF007F08AE003A08BD000430F6
:100118000310BD0CFF3E031D8C283D080F39FF005E
:100128007F08AD003808303EFF007F08AC00370874
:10013800303EFF007F08AB003608303EFF007F08E6
:10014800AA003508303EFF007F08A9003408303E79
:10015800FF007F08A8003308303EFF007F08A70093
:100168003208303EFF007F08A6003108303EFF000D
:100178007F08A5003008303EFF007F08A4002F0844
:10018800303EFF007F08A3002E08303EFF007F08A6
:10019800A2002D08303EFF007F08A10008000529B5
:1001A800203099004A29270899004A2928089900E7
:1001B8004A293A3099004A29290899004A292A08DF
:1001C80099004A292B0899004A292C0899004A299C
:1001D800250899004A29260899004A292F309900AC
:1001E8004A29230899004A29240899004A292108FC
:1001F80099004A29220899004A290A309900BB0126
:100208004A29831203133B08F600F7017708003ADE
:1002180003190F294A297608003A0319D428013A04
:100228000319D728033A0319DA28013A0319DD28F4
:10023800073A0319E028013A0319E328033A031996
:10024800DD28013A0319E6280F3A0319E928013A8B
:100258000319D428033A0319EC28013A0319EF28A3
:10026800073A0319F228013A0319F528033A031942
:10027800F828013A0319F2281F3A0319FB28013A12
:100288000319FE28033A031901294A2908000A120A
:100298008A1157240A128A11D03083120313BD0021
:1002A8000030BE000A128A1144240A128A11003052
:1002B80083120313BD00BE000A128A1144240A12D5
:1002C8008A110A128A1157240A128A11D13083120C
:1002D8000313BD000030BE000A128A1144240A121A
:1002E8008A1101300A128A11A3230A128A11FF0007
:1002F8007F08F50001300A128A11A3230A128A1115
:10030800FF007F08F40001300A128A11A3230A12A1
:100318008A11FF007F08F30001300A128A11A32313
:100328000A128A11FF007F0883120313B9000130F3
:100338000A128A11A3230A128A11FF007F08F20009
:1003480001300A128A11A3230A128A11FF007F08BA
:10035800F10000300A128A11A3230A128A11FF0041
:100368007F0883120313BA000A128A114E240A1254
:100378008A1108000A128A1157240A128A11D030E9
:1003880083120313BD000030BE000A128A114424F0
:100398000A128A11003083120313BD00BE000A122C
:1003A8008A1144240A128A11003083120313BD00F3
:1003B800BE000A128A1144240A128A1100308312DC
:1003C8000313BD00BE000A128A1144240A128A11BE
:1003D800233083120313BD000030BE000A128A11B5
:1003E80044240A128A11013083120313BD0000301D
:1003F800BE000A128A1144240A128A110530831297
:100408000313BD000030BE000A128A1144240A12E8
:100418008A11033083120313BD000030BE000A1294
:100428008A1144240A128A11213083120313BD0051
:100438000030BE000A128A1144240A128A110A12D4
:100448008A114E240A128A110800003083120313FD
:10045800C9000030C8000030C7000030C60040089E
:100468003F043E043D0403193A2A3B2A882ACA015C
:10047800CA0A4B2A0130C5000310BD0DBE0DBF0DC1
:10048800C00DC50B402A0130FF007F08CA07C01FF6
:100498004E2A4F2A3E2A0130C5000310C60DC70D4B
:1004A800C80DC90DC50B512A40084402031D662A10
:1004B8003F084302031D662A3E084202031D662ABE
:1004C8003D084102031C692A6A2A792A3D08C102AB
:1004D8003E08031C3E0FC2023F08031C3F0FC30225
:1004E8004008031C400FC402461401300310C00C1E
:1004F800BF0CBE0CBD0CFF3E031D7A2A0130CA0298
:10050800031D872A882A4F2A4908C0004808BF00C7
:100518004708BE004608BD00080083120313BF0049
:10052800CB2A831603130F138F120F12ED2A83168B
:1005380003130F138F120F16ED2A831603130F13CD
:100548008F160F12ED2A831603130F138F160F162B
:10055800ED2A831603130F178F120F12ED2A831635
:1005680003130F178F120F16ED2A831603130F1795
:100578008F160F12ED2A831603130F178F160F16F7
:10058800ED2A831603130F178F160F12ED2A3F0853
:10059800BD00BE013E08003A0319D32AC52A3D080A
:1005A800003A0319952A013A03199B2A033A0319B9
:1005B800A12A013A0319A72A073A0319AD2A013AD1
:1005C8000319B32A033A0319B92A013A0319BF2AAE
:1005D800C52A0F1408000B1DF22AF32AFA2AEC3058
:1005E80081000130FF007F08BC070B112003031DA9
:1005F800FE2AFF2A122B0C1E022B032B122B0A1287
:100608008A11D3200A128A110130FF007F08831251
:100618000313BB070C12831603130C1283128C1ED0
:10062800162B172B202B1A08FF007F08F0000A1240
:100638008A11D4230A128A117B0883120313FF003C
:100648007A088A0079088400780E8300FE0E7E0EF0
:10065800090006300A128A1191220A128A110A1216
:100668008A1122240A128A1183160313850186012E
:1006780088018901831603178801890183120313EE
:100688008501860187018801890187308316031354
:1006980081008B170B17831203130C128316031395
:1006A8000C160B118B168C16831203138C12003048
:1006B800CE000130CD008630CC00A030CB000A122D
:1006C8008A1169230A128A11080028308312031339
:1006D8009400831603139101831203134B08CF0070
:1006E8004C08D0004D08D1004E08D200023003104B
:1006F800CF0DD00DD10DD20DFF3E031D7B2B52081F
:10070800C0005108BF005008BE004F08BD000030AF
:10071800C4003D30C3000930C2000030C1000A12D5
:100728008A1129220A128A11831203133D08FF3EF7
:100738008316031393009401871507160800831284
:100748000313BF000A128A1137240A128A1183166A
:10075800031391150A128A1137240A128A11831277
:1007680003131308BD00BE013D08C0003E08C100C8
:100778000A128A1137240A128A11831203133F03BB
:10078800031DC72BC82BCC2B831603139112CF2B19
:1007980083160313911611168312031340080800D9
:1007A8007003031DD82BD92BDF2B83120313A00151
:1007B800A00A0510851002307006031DE42BE52BF6
:1007C800E92B831203130514851003307006031DEB
:1007D800EE2BEF2BF32B8312031385140510043033
:1007E8007006031DF82BF92BFD2B83120313051438
:1007F800851408000A128A112D230A128A110A1276
:100808008A11BE210A128A110A128A114B210A1270
:100818008A110A128A1128200A128A111F3083129B
:1008280003133C02031C192C1A2C082CBC01831638
:1008380003130C16082C0A128A11122883160313A4
:100848001813181218158316031787118316031324
:100858009A01193099000C169816831203139817E9
:100868001813181608008316031314193C2C3D2C72
:10087800372C11081F39031D422C432C372C080034
:100888000A128A1137240A128A11831203133D08A7
:10089800930008000A128A1137240A128A11831653
:1008A8000313111508000A128A1137240A128A1133
:1008B800831603131114080064008001840A0406D7
:0808C800031900340406612C41
:04400E00D420FF3F7C
:00000001FF
