:020000040000FA
:060000000A128A11122809
:10000800FE00030EF8000408F9000A08FA0083123B
:1000180003137F08FB000A128A11912B0A128A1116
:100028001528F001F101F201F301F401F501831340
:10003800203084003B300A128A111D240A128A11CA
:1000480083010A128A11BB2B75080F39FF007F083C
:1000580083120313B7007508BB0004300310BB0CF0
:10006800FF3E031D32283B080F39FF007F08B6000A
:1000780074080F39FF007F08B5007408BB0004300E
:100088000310BB0CFF3E031D44283B080F39FF003B
:100098007F08B40073080F39FF007F08B3007308A6
:1000A800BB0004300310BB0CFF3E031D56283B0861
:1000B8000339FF007F08B20072080F39FF007F087C
:1000C800B1007208BB0004300310BB0CFF3E031DD7
:1000D80068283B080F39FF007F08B00071080F3906
:1000E800FF007F08AF007108BB0004300310BB0C91
:1000F800FF3E031D7A283B080F39FF007F08AE003A
:1001080070080F39FF007F08AD007008BB0004308D
:100118000310BB0CFF3E031D8C283B080F39FF0062
:100128007F08AC003708303EFF007F08AB00360878
:10013800303EFF007F08AA003508303EFF007F08E8
:10014800A9003408303EFF007F08A8003308303E7D
:10015800FF007F08A7003208303EFF007F08A60096
:100168003108303EFF007F08A5003008303EFF0010
:100178007F08A4002F08303EFF007F08A3002E0848
:10018800303EFF007F08A2002D08303EFF007F08A8
:10019800A1002C08303EFF007F08A00008000529B8
:1001A800203099004A29260899004A2927089900E9
:1001B8004A293A3099004A29280899004A292908E1
:1001C80099004A292A0899004A292B0899004A299E
:1001D800240899004A29250899004A292F309900AE
:1001E8004A29220899004A29230899004A292008FF
:1001F80099004A29210899004A290A309900B90129
:100208004A29831203133908F600F7017708003AE0
:1002180003190F294A297608003A0319D428013A04
:100228000319D728033A0319DA28013A0319DD28F4
:10023800073A0319E028013A0319E328033A031996
:10024800DD28013A0319E6280F3A0319E928013A8B
:100258000319D428033A0319EC28013A0319EF28A3
:10026800073A0319F228013A0319F528033A031942
:10027800F828013A0319F2281F3A0319FB28013A12
:100288000319FE28033A031901294A2908000A120A
:100298008A1114240A128A11D03083120313BB0066
:1002A8000030BC000A128A1101240A128A11003097
:1002B80083120313BB00BC000A128A1101240A121C
:1002C8008A110A128A1114240A128A11D13083124F
:1002D8000313BB000030BC000A128A1101240A1261
:1002E8008A1101300A128A1160230A128A11FF004A
:1002F8007F08F50001300A128A1160230A128A1158
:10030800FF007F08F40001300A128A1160230A12E4
:100318008A11FF007F08F30001300A128A11602356
:100328000A128A11FF007F0883120313B8000130F4
:100338000A128A1160230A128A11FF007F08F2004C
:1003480001300A128A1160230A128A11FF007F08FD
:10035800F10000300A128A1160230A128A11FF0084
:100368007F08F0000A128A110B240A128A11080069
:100378000A128A1114240A128A11D0308312031324
:10038800BB000030BC000A128A1101240A128A112B
:10039800003083120313BB00BC000A128A11012427
:1003A8000A128A11003083120313BB00BC000A1220
:1003B8008A1101240A128A11003083120313BB0028
:1003C800BC000A128A1101240A128A110030831211
:1003D8000313BB00BC000A128A1101240A128A11F5
:1003E800013083120313BB000030BC000A128A11CB
:1003F80001240A128A11203083120313BB00003033
:10040800BC000A128A1101240A128A1110308312C0
:100418000313BB000030BC000A128A1101240A121F
:100428008A11213083120313BB000030BC000A126A
:100438008A1101240A128A110A128A110B240A123B
:100448008A110800003083120313C7000030C60069
:100458000030C5000030C4003E083D043C043B04A5
:100468000319372A382A852AC801C80A482A0130B8
:10047800C3000310BB0DBC0DBD0DBE0DC30B3D2A43
:100488000130FF007F08C807BE1F4B2A4C2A3B2AB1
:100498000130C3000310C40DC50DC60DC70DC30B35
:1004A8004E2A3E084202031D632A3D084102031DED
:1004B800632A3C084002031D632A3B083F02031CD1
:1004C800662A672A762A3B08BF023C08031C3C0FB1
:1004D800C0023D08031C3D0FC1023E08031C3E0F2D
:1004E800C202441401300310BE0CBD0CBC0CBB0C82
:1004F800FF3E031D772A0130C802031D842A852A7E
:100508004C2A4708BE004608BD004508BC00440800
:10051800BB00080083120313BD00C82A8316031307
:100528000F138F120F12EA2A831603130F138F1259
:100538000F16EA2A831603130F138F160F12EA2ACF
:10054800831603130F138F160F16EA2A8316031345
:100558000F178F120F12EA2A831603130F178F1221
:100568000F16EA2A831603130F178F160F12EA2A9B
:10057800831603130F178F160F16EA2A8316031311
:100588000F178F160F12EA2A3D08BB00BC013C0862
:10059800003A0319D02AC22A3B08003A0319922AC2
:1005A800013A0319982A033A03199E2A013A0319B2
:1005B800A42A073A0319AA2A013A0319B02A033AC6
:1005C8000319B62A013A0319BC2AC22A0F140800D3
:1005D80006300A128A118E220A128A110A128A1108
:1005E800DF230A128A118316031385018601880105
:1005F8008901831603178801890183120313850172
:1006080086018701880189018730831603138100D9
:100618008B170B17831203130C12831603130C1674
:100628000B118B16003083120313CC000130CB0062
:100638008630CA00A030C9000A128A1126230A127D
:100648008A110800283083120313940083160313B9
:100658009101831203134908CD004A08CE004B08C4
:10066800CF004C08D00002300310CD0DCE0DCF0DB9
:10067800D00DFF3E031D382B5008BE004F08BD00AB
:100688004E08BC004D08BB000030C2003D30C10020
:100698000930C0000030BF000A128A1126220A124F
:1006A8008A11831203133B08FF3E8316031393003A
:1006B800940187150716080083120313BD000A1258
:1006C8008A11F4230A128A118316031391150A1248
:1006D8008A11F4230A128A11831203131308BB0028
:1006E800BC013B08BE003C08BF000A128A11F42373
:1006F8000A128A11831203133D03031D842B852BD1
:10070800892B8316031391128C2B831603139116CE
:100718001116831203133E0808000B1D942B952B0A
:100728009C2BEC3081000130FF007F08BA070B11C9
:100738000C1E9F2BA02BAF2B0A128A11D3200A1252
:100748008A110130FF007F0883120313B9070C12C6
:10075800831603130C127B088312FF007A088A00A1
:1007680079088400780E8300FE0E7E0E09000A12B6
:100778008A11EC220A128A110A128A11BC210A1261
:100788008A110A128A114B210A128A110A128A1135
:1007980028200A128A111F30831203133A02031CFD
:1007A800D62BD72BC52BBA01831603130C16C52BD2
:1007B8000A128A111228831603131813181218150F
:1007C800831603178711831603139A0119309900AA
:1007D8000C16981683120313981718131816080086
:1007E800831603131419F92BFA2BF42B11081F394C
:1007F800031DFF2B002CF42B08000A128A11F42386
:100808000A128A11831203133B08930008000A1284
:100818008A11F4230A128A1183160313111508008A
:100828000A128A11F4230A128A1183160313111467
:10083800080064008001840A0406031900340406D1
:020848001E2C64
:04400E00D420FF3F7C
:00000001FF
